:020000020000FC
:0200000033C00B
:020004005BC0DF
:020008006CC0CA
:0200400063C09B
:1000680000E0009300010093010100930201009356
:10007800030152985A9A53985B9A5FD00AE000930A
:100088006900E89AE99A05E005BD01E000936E0071
:10009800789400910201013009F0FBCFE898E998C3
:1000A80030EA82D000E000930201E09AE19AE89AEF
:1000B800E99AEFCF0F930FB70F934F934091000139
:1000C8004F3031F043954093000141E040930201E5
:1000D8004F910F910FBF0F9118950F930FB70F9373
:1000E8004F93409101014F3031F043954093010106
:1000F80041E0409302014F910F910FBF0F91189566
:100108000F930FB70F93AF93BF9300910301003084
:1001180009F007C001E000930301A0E0B1E017D0A7
:1001280006C000E000930301A1E0B1E018D0BF9140
:10013800AF910F910FBF0F91189507E204B905B958
:100148000FEF07B908B90895299A289A08950F93C7
:10015800299A000028980C910AD00F9108950F93BE
:10016800289A000029980C9102D00F910895FF93C6
:10017800EF930F920FB60F92F1E0E0EAE00F08F468
:10018800F39504902A9A06FE2A9808B80F900FBE95
:100198000F90EF91FF910895407924301912027859
:1001A800001808034621060E1F932F931FB71F93AD
:1001B800112722271A95F1F72A95E1F73A95D1F7F1
:0A01C8001F911FBF2F911F91089592
:00000001FF
